{
  "contractName": "LottoCoin",
  "abi": [
    {
      "inputs": [],
      "stateMutability": "nonpayable",
      "type": "constructor"
    },
    {
      "anonymous": false,
      "inputs": [
        {
          "indexed": true,
          "internalType": "address",
          "name": "winner",
          "type": "address"
        },
        {
          "indexed": false,
          "internalType": "uint256",
          "name": "_rank",
          "type": "uint256"
        },
        {
          "indexed": false,
          "internalType": "uint256[]",
          "name": "_submit",
          "type": "uint256[]"
        },
        {
          "indexed": false,
          "internalType": "uint256[]",
          "name": "_answer",
          "type": "uint256[]"
        }
      ],
      "name": "WinOfLotto",
      "type": "event"
    },
    {
      "inputs": [
        {
          "internalType": "address",
          "name": "",
          "type": "address"
        }
      ],
      "name": "balanceOf",
      "outputs": [
        {
          "internalType": "uint256",
          "name": "",
          "type": "uint256"
        }
      ],
      "stateMutability": "view",
      "type": "function",
      "constant": true
    },
    {
      "inputs": [],
      "name": "owner",
      "outputs": [
        {
          "internalType": "address",
          "name": "",
          "type": "address"
        }
      ],
      "stateMutability": "view",
      "type": "function",
      "constant": true
    },
    {
      "inputs": [],
      "name": "total",
      "outputs": [
        {
          "internalType": "uint256",
          "name": "",
          "type": "uint256"
        }
      ],
      "stateMutability": "view",
      "type": "function",
      "constant": true
    },
    {
      "inputs": [
        {
          "internalType": "uint256",
          "name": "num",
          "type": "uint256"
        }
      ],
      "name": "SetCoin",
      "outputs": [],
      "stateMutability": "nonpayable",
      "type": "function"
    },
    {
      "inputs": [
        {
          "internalType": "address",
          "name": "addr",
          "type": "address"
        }
      ],
      "name": "GetCoin",
      "outputs": [
        {
          "internalType": "uint256",
          "name": "",
          "type": "uint256"
        }
      ],
      "stateMutability": "view",
      "type": "function",
      "constant": true
    },
    {
      "inputs": [],
      "name": "BuyLotto",
      "outputs": [],
      "stateMutability": "nonpayable",
      "type": "function"
    },
    {
      "inputs": [],
      "name": "ReceiveCoin",
      "outputs": [],
      "stateMutability": "nonpayable",
      "type": "function"
    },
    {
      "inputs": [
        {
          "internalType": "address",
          "name": "_to",
          "type": "address"
        },
        {
          "internalType": "uint256",
          "name": "amount",
          "type": "uint256"
        }
      ],
      "name": "Send",
      "outputs": [],
      "stateMutability": "nonpayable",
      "type": "function"
    },
    {
      "inputs": [
        {
          "internalType": "uint256",
          "name": "_rank",
          "type": "uint256"
        },
        {
          "internalType": "uint256[]",
          "name": "_submit",
          "type": "uint256[]"
        },
        {
          "internalType": "uint256[]",
          "name": "_answer",
          "type": "uint256[]"
        }
      ],
      "name": "Winning",
      "outputs": [],
      "stateMutability": "nonpayable",
      "type": "function"
    }
  ],
  "bytecode": "0x608060405234801561001057600080fd5b50600060038190555033600560006101000a81548173ffffffffffffffffffffffffffffffffffffffff021916908373ffffffffffffffffffffffffffffffffffffffff160217905550610e4a806100696000396000f3fe608060405234801561001057600080fd5b50600436106100935760003560e01c80638da5cb5b116100665780638da5cb5b1461013257806390796f2814610150578063dd6de4571461016c578063f6a324f614610176578063fc42f8331461019257610093565b80632ddbd13a1461009857806330a3c507146100b65780634fff644c146100d257806370a0823114610102575b600080fd5b6100a061019c565b6040516100ad91906108f7565b60405180910390f35b6100d060048036038101906100cb91906109b0565b6101a2565b005b6100ec60048036038101906100e791906109f0565b610311565b6040516100f991906108f7565b60405180910390f35b61011c600480360381019061011791906109f0565b61035a565b60405161012991906108f7565b60405180910390f35b61013a610372565b6040516101479190610a2c565b60405180910390f35b61016a60048036038101906101659190610ba0565b610398565b005b610174610593565b005b610190600480360381019061018b9190610c2b565b6106ee565b005b61019a6107a5565b005b60035481565b600560009054906101000a900473ffffffffffffffffffffffffffffffffffffffff1673ffffffffffffffffffffffffffffffffffffffff163373ffffffffffffffffffffffffffffffffffffffff16146101fc57600080fd5b80600460003373ffffffffffffffffffffffffffffffffffffffff1673ffffffffffffffffffffffffffffffffffffffff16815260200190815260200160002054101561024857600080fd5b80600460008473ffffffffffffffffffffffffffffffffffffffff1673ffffffffffffffffffffffffffffffffffffffff16815260200190815260200160002060008282546102979190610c87565b9250508190555080600460003373ffffffffffffffffffffffffffffffffffffffff1673ffffffffffffffffffffffffffffffffffffffff16815260200190815260200160002060008282546102ed9190610cdd565b9250508190555080600360008282546103069190610cdd565b925050819055505050565b6000600460008373ffffffffffffffffffffffffffffffffffffffff1673ffffffffffffffffffffffffffffffffffffffff168152602001908152602001600020549050919050565b60046020528060005260406000206000915090505481565b600560009054906101000a900473ffffffffffffffffffffffffffffffffffffffff1681565b6000600184036103ab57600590506103e6565b600284036103bc57600390506103e5565b600384036103cd57600290506103e4565b600484036103de57600190506103e3565b600090505b5b5b5b8060046000600560009054906101000a900473ffffffffffffffffffffffffffffffffffffffff1673ffffffffffffffffffffffffffffffffffffffff1673ffffffffffffffffffffffffffffffffffffffff16815260200190815260200160002054101561045457600080fd5b3373ffffffffffffffffffffffffffffffffffffffff167f9d4a7520a5c69c3d38a91d26bc8685648a1fe9b8b6d90a317723c1ddc913a98885858560405161049e93929190610dcf565b60405180910390a280600460003373ffffffffffffffffffffffffffffffffffffffff1673ffffffffffffffffffffffffffffffffffffffff16815260200190815260200160002060008282546104f59190610c87565b925050819055508060046000600560009054906101000a900473ffffffffffffffffffffffffffffffffffffffff1673ffffffffffffffffffffffffffffffffffffffff1673ffffffffffffffffffffffffffffffffffffffff168152602001908152602001600020600082825461056d9190610cdd565b9250508190555080600360008282546105869190610cdd565b9250508190555050505050565b600a60046000600560009054906101000a900473ffffffffffffffffffffffffffffffffffffffff1673ffffffffffffffffffffffffffffffffffffffff1673ffffffffffffffffffffffffffffffffffffffff16815260200190815260200160002054101561060257600080fd5b600a600460003373ffffffffffffffffffffffffffffffffffffffff1673ffffffffffffffffffffffffffffffffffffffff16815260200190815260200160002060008282546106529190610c87565b92505081905550600a60046000600560009054906101000a900473ffffffffffffffffffffffffffffffffffffffff1673ffffffffffffffffffffffffffffffffffffffff1673ffffffffffffffffffffffffffffffffffffffff16815260200190815260200160002060008282546106cb9190610cdd565b92505081905550600a600360008282546106e59190610cdd565b92505081905550565b600560009054906101000a900473ffffffffffffffffffffffffffffffffffffffff1673ffffffffffffffffffffffffffffffffffffffff163373ffffffffffffffffffffffffffffffffffffffff161461074857600080fd5b6103e881101561075757600080fd5b8060038190555080600460003373ffffffffffffffffffffffffffffffffffffffff1673ffffffffffffffffffffffffffffffffffffffff1681526020019081526020016000208190555050565b6001600460003373ffffffffffffffffffffffffffffffffffffffff1673ffffffffffffffffffffffffffffffffffffffff1681526020019081526020016000205410156107f257600080fd5b6001600460003373ffffffffffffffffffffffffffffffffffffffff1673ffffffffffffffffffffffffffffffffffffffff16815260200190815260200160002060008282546108429190610cdd565b92505081905550600160046000600560009054906101000a900473ffffffffffffffffffffffffffffffffffffffff1673ffffffffffffffffffffffffffffffffffffffff1673ffffffffffffffffffffffffffffffffffffffff16815260200190815260200160002060008282546108bb9190610c87565b925050819055506001600360008282546108d59190610c87565b92505081905550565b6000819050919050565b6108f1816108de565b82525050565b600060208201905061090c60008301846108e8565b92915050565b6000604051905090565b600080fd5b600080fd5b600073ffffffffffffffffffffffffffffffffffffffff82169050919050565b600061095182610926565b9050919050565b61096181610946565b811461096c57600080fd5b50565b60008135905061097e81610958565b92915050565b61098d816108de565b811461099857600080fd5b50565b6000813590506109aa81610984565b92915050565b600080604083850312156109c7576109c661091c565b5b60006109d58582860161096f565b92505060206109e68582860161099b565b9150509250929050565b600060208284031215610a0657610a0561091c565b5b6000610a148482850161096f565b91505092915050565b610a2681610946565b82525050565b6000602082019050610a416000830184610a1d565b92915050565b600080fd5b6000601f19601f8301169050919050565b7f4e487b7100000000000000000000000000000000000000000000000000000000600052604160045260246000fd5b610a9582610a4c565b810181811067ffffffffffffffff82111715610ab457610ab3610a5d565b5b80604052505050565b6000610ac7610912565b9050610ad38282610a8c565b919050565b600067ffffffffffffffff821115610af357610af2610a5d565b5b602082029050602081019050919050565b600080fd5b6000610b1c610b1784610ad8565b610abd565b90508083825260208201905060208402830185811115610b3f57610b3e610b04565b5b835b81811015610b685780610b54888261099b565b845260208401935050602081019050610b41565b5050509392505050565b600082601f830112610b8757610b86610a47565b5b8135610b97848260208601610b09565b91505092915050565b600080600060608486031215610bb957610bb861091c565b5b6000610bc78682870161099b565b935050602084013567ffffffffffffffff811115610be857610be7610921565b5b610bf486828701610b72565b925050604084013567ffffffffffffffff811115610c1557610c14610921565b5b610c2186828701610b72565b9150509250925092565b600060208284031215610c4157610c4061091c565b5b6000610c4f8482850161099b565b91505092915050565b7f4e487b7100000000000000000000000000000000000000000000000000000000600052601160045260246000fd5b6000610c92826108de565b9150610c9d836108de565b9250827fffffffffffffffffffffffffffffffffffffffffffffffffffffffffffffffff03821115610cd257610cd1610c58565b5b828201905092915050565b6000610ce8826108de565b9150610cf3836108de565b925082821015610d0657610d05610c58565b5b828203905092915050565b600081519050919050565b600082825260208201905092915050565b6000819050602082019050919050565b610d46816108de565b82525050565b6000610d588383610d3d565b60208301905092915050565b6000602082019050919050565b6000610d7c82610d11565b610d868185610d1c565b9350610d9183610d2d565b8060005b83811015610dc2578151610da98882610d4c565b9750610db483610d64565b925050600181019050610d95565b5085935050505092915050565b6000606082019050610de460008301866108e8565b8181036020830152610df68185610d71565b90508181036040830152610e0a8184610d71565b905094935050505056fea26469706673582212200f60f4eb3e3676ea38b5df8d41762ed0a53b5de5dbbb2b8d74313d89b8eaca9664736f6c634300080d0033",
  "immutableReferences": {},
  "source": "//SPDX-License-Identifier:MIT\r\npragma solidity >=0.4.21 <8.10.0;\r\n\r\ncontract LottoCoin {\r\n    uint[] submit; //   \r\n    uint256[] answer; //  \r\n    uint256 rank; //  \r\n    uint256 public total; //  \r\n    mapping (address => uint256) public balanceOf;\r\n    address public owner;\r\n\r\n    event WinOfLotto(address indexed winner, uint256 _rank, uint256[] _submit, uint256[] _answer);\r\n\r\n    modifier onlyOwner() {\r\n        require(msg.sender == owner);\r\n        _;\r\n    }\r\n\r\n    constructor() {\r\n        total = 0;\r\n        owner = msg.sender;\r\n    }\r\n\r\n    function SetCoin(uint256 num) public onlyOwner {\r\n        require(num >= 1000);\r\n        total = num;\r\n        balanceOf[msg.sender] = num; \r\n    }\r\n\r\n    function GetCoin(address addr) public view returns(uint) {\r\n        return balanceOf[addr];\r\n    }\r\n\r\n    function BuyLotto() public {\r\n        require(balanceOf[msg.sender] >= 1);\r\n        balanceOf[msg.sender] -= 1;\r\n        balanceOf[owner] += 1;\r\n        total += 1;\r\n    }\r\n\r\n    function ReceiveCoin() public {\r\n        require(balanceOf[owner] >= 10);\r\n        balanceOf[msg.sender] += 10;\r\n        balanceOf[owner] -= 10;\r\n        total -= 10;\r\n    }\r\n\r\n    function Send(address _to, uint256 amount) public onlyOwner {\r\n        require(balanceOf[msg.sender] >= amount);\r\n        balanceOf[_to] += amount;\r\n        balanceOf[msg.sender] -= amount;\r\n        total -= amount;\r\n    }\r\n\r\n    function Winning(uint256 _rank, uint256[] memory _submit, uint256[] memory _answer) public {\r\n        uint256 coin;\r\n        if(_rank == 1) coin = 5;\r\n        else if(_rank == 2) coin = 3;\r\n        else if(_rank == 3) coin = 2;\r\n        else if(_rank == 4) coin = 1;\r\n        else coin = 0;\r\n        \r\n        require(balanceOf[owner] >= coin);\r\n        emit WinOfLotto(msg.sender, _rank, _submit, _answer);\r\n        balanceOf[msg.sender] += coin;\r\n        balanceOf[owner] -= coin;\r\n        total -= coin;\r\n    }\r\n}",
  "sourcePath": "D:\\Solidity\\lotto-v2\\contracts\\LottoCoin.sol",
  "compiler": {
    "name": "solc",
    "version": "0.8.13+commit.abaa5c0e.Emscripten.clang"
  },
  "schemaVersion": "3.4.7",
  "updatedAt": "2022-07-10T03:59:14.066Z",
  "networkType": "ethereum",
  "devdoc": {
    "kind": "dev",
    "methods": {},
    "version": 1
  },
  "userdoc": {
    "kind": "user",
    "methods": {},
    "version": 1
  }
}